:100000000C9434010C9446010C9446010C94460166
:100010000C9446010C9446010C9446010C94460144
:100020000C9446010C9446010C9446010C94460134
:100030000C9446010C9472050C9446010C944601F4
:100040000C945C010C9446010C94FD040C94FB058B
:100050000C9443060C9446010C9446010C94460102
:100060000C9446010C94460100C0C101C30302C2B6
:10007000C60607C705C5C404CC0C0DCD0FCFCE0EE8
:100080000ACACB0BC90908C8D81819D91BDBDA1A58
:100090001EDEDF1FDD1D1CDC14D4D515D71716D6C8
:1000A000D21213D311D1D010F03031F133F3F23238
:1000B00036F6F737F53534F43CFCFD3DFF3F3EFEA8
:1000C000FA3A3BFB39F9F83828E8E929EB2B2AEA18
:1000D000EE2E2FEF2DEDEC2CE42425E527E7E62688
:1000E00022E2E323E12120E0A06061A163A3A262F8
:1000F00066A6A767A56564A46CACAD6DAF6F6EAE68
:10010000AA6A6BAB69A9A86878B8B979BB7B7ABAD7
:10011000BE7E7FBF7DBDBC7CB47475B577B7B67647
:1001200072B2B373B17170B05090915193535292B7
:1001300096565797559594549C5C5D9D5F9F9E5E27
:100140005A9A9B5B99595898884849894B8B8A4A97
:100150004E8E8F4F8D4D4C8C448485458747468607
:10016000824243834181804000C1814001C080417F
:1001700001C0804100C1814001C0804100C1814077
:1001800000C1814001C0804101C0804100C1814067
:1001900000C1814001C0804100C1814001C0804157
:1001A00001C0804100C1814001C0804100C1814047
:1001B00000C1814001C0804100C1814001C0804137
:1001C00001C0804100C1814000C1814001C0804127
:1001D00001C0804100C1814001C0804100C1814017
:1001E00000C1814001C0804101C0804100C1814007
:1001F00000C1814001C0804100C1814001C08041F7
:1002000001C0804100C1814000C1814001C08041E6
:1002100001C0804100C1814001C0804100C18140D6
:1002200000C1814001C0804100C1814001C08041C6
:1002300001C0804100C1814001C0804100C18140B6
:1002400000C1814001C0804101C0804100C18140A6
:1002500000C1814001C0804100C1814001C0804196
:1002600001C0804100C1814011241FBECFEFD8E002
:10027000DEBFCDBF22E0A0E0B1E001C01D92A232FE
:10028000B207E1F70E946D010C94A4080C940000E1
:100290008536910510F084E690E0BC0180E090E0A6
:1002A0000E940D0723E333E343E250E40E940B086E
:1002B0000E94DB07862F08951F920F920FB60F92B0
:1002C00011248F93809118028F5F809318028F9171
:1002D0000F900FBE0F901F9018952DE088E190E0D1
:1002E0000FB6F894A895809360000FBE209360002D
:1002F000F8948BE084B983E085B917B88FE188B9A9
:100300008CE68AB91BB816BC81EA84BD94E095BD21
:10031000EEE6F0E090819160908392E89093B200D5
:100320008093B00086E08093B10096B19095917073
:10033000319902C082E001C080E0982B329902C05E
:1003400084E001C080E0982B339902C088E001C0AE
:1003500080E0892B8F5F80931102349B03C080E67D
:1003600090E002C080E894E0909302028093010242
:100370000E946F0278940F2EF3E0AF2EF2E0BF2EB2
:10038000F02D0F2EF5E0CF2EF2E0DF2EF02D0F2E08
:10039000F3EBEF2EF12CF02D07E012E00F2EF9E039
:1003A0008F2EF2E09F2EF02D0F2EFBE06F2EF2E04D
:1003B0007F2EF02D0F2EF4EB4F2E512CF02DCDE093
:1003C000D2E00F2EFFE02F2EF2E03F2EF02DA89569
:1003D000F501808191818130910551F030F08230BA
:1003E000910549F0039751F00BC0289A299A08C04B
:1003F0002898299A05C0289A299802C028982998EF
:10040000F601808191810E944801F7018083F80103
:10041000808191810E94480187BDF4018081918192
:100420000E94480188BDF301808191810E944801AA
:10043000F201808380911802813E48F210921802E6
:1004400088819981019699838883019609F0BFCFAD
:1004500019821882F10180819181019691838083B4
:10046000B6CF61157105B1F0DC01680F791F8FEF10
:100470004FEF2D918227282F30E0F901E859FE4FE8
:1004800084918427F901E859FF4F4491A617B707D3
:1004900081F702C08FEF4FEF90E0942B0895CF9338
:1004A000DF93EC01EF81F8852083EF81F8856058B8
:1004B0006183EF81F885428363E070E08F819885E6
:1004C0000E943102EF81F8858383EF81F885948360
:1004D00085E090E09C838B83DF91CF910895CF934B
:1004E000CFB7F894109212028091110280931502F6
:1004F00020910102309102023093140220931302E2
:10050000213C310508F540E050E060E078E480E00F
:1005100090E00E948208CA01B9010E940D0720E004
:1005200030E040E650E40E940B0820E030E040E379
:1005300051E40E940B089B01AC0160E07FEF8FE764
:1005400097E40E94690604C060EC75E683E797E4CF
:100550000E94CE060E94E106709317026093160275
:100560000E94B404CFBFCF910895EF92FF920F93F2
:100570001F93CF93DF938C01EB016B817C811C82F5
:100580001B82633008F4E9C1EF81F8859081D801BE
:1005900013968C919813E1C17727CF01860F971F8F
:1005A000DC011197EC90F12CFE2CEE2411978C912C
:1005B000E82A62507109CF010E9431028E159F0511
:1005C00009F0CBC1EF81F8856181828190E0982F9D
:1005D00088272381822B663009F4BFC0603109F47B
:1005E00002C1633009F084C1648170E0762F662710
:1005F0002581622B9B01215031092D37310508F0EF
:10060000A3C08730910540F49C01260F371F21506D
:1006100031092730310558F09C012557344A2230E2
:10062000310508F089C06330710508F085C0853751
:10063000B4EA9B0709F562307105A1F41382EF81DA
:10064000F885809111028483EF81F8858091010201
:10065000909102029583EF81F88586836894FF2448
:10066000F2F845C01382EF81F885809111028483EE
:100670006894FF24F1F83BC0863724EA920729F0FA
:100680006115710571F4F12C32C0809101029091D5
:1006900002029383EF81F88584836894FF24F1F844
:1006A00026C020E030E0E12CF12C4E2D50E0440F2C
:1006B000551F280F391FAF81B885A40FB51FF90149
:1006C000EE0FFF1FED5FFD4F218113962C932F81BD
:1006D0003885D901A40FB51F208114962C93F3946B
:1006E000F394E3942E2D30E026173707F0F2EF81D4
:1006F000F885D80113968C918083EF81F88583E08B
:100700008183EF81F885F2820F2D10E0B8016D5FD3
:100710007F4F8F8198850E943102EF81F885E00F2D
:10072000F11F8383EF81F885E00FF11F94830B5F46
:100730001F4F1C830B8311C1F801238142E063E04A
:10074000CE010E944F0209C1D80113962C9143E0BB
:1007500063E0CE010E944F0200C18730910508F48A
:10076000EEC08537B4EA9B0709F4C9C0863724EA8E
:10077000920709F4CDC0863443EC940709F4D3C042
:100780002AC041E040930001EF81F885D80113961B
:100790004C914083EF81F88546E04183EF81F885F5
:1007A0009283EF81F8858383EF81F8853483EF812D
:1007B000F885258366E070E08F8198850E9431027C
:1007C000EF81F8858683EF81F885978388E090E054
:1007D0009C838B83C2C0F801238142E066E0CE0196
:1007E0000E944F02BAC0248130E0322F2227458177
:1007F000242B6681A901415051094B37510508F05E
:100800006EC070E0A901440F551F6417750709F009
:1008100066C08730910508F05AC0AC01420F531FE3
:10082000415051094730510508F051C0211531059B
:1008300039F140E050E0F12C480F591FAF2DB0E0E6
:10084000AA0FBB1FEF81F885EA0FFB1F678170E0DD
:10085000762F6627FA01EE0FFF1FED5FFD4F7183C4
:1008600060834F815885A40FB51F18964C91642B57
:1008700071836083F3944F2D50E042175307E0F2E9
:10088000EF81F885D80113964C914083EF81F8856C
:1008900040E14183EF81F8859283EF81F88583837E
:1008A000EF81F8853483EF81F885258366E070E079
:1008B0008F8198850E943102EF81F8858683EF81D0
:1008C000F885978388E090E09C838B8346C0F8018D
:1008D000238142E060E1CE010E944F023EC0D80178
:1008E00013962C9143E060E1CE010E944F0235C087
:1008F000F801238141E0CE010E944F022EC02481E5
:1009000030E0322F22274581242B209311023CCF47
:10091000248130E0322F22274581242B309302029C
:100920002093010231CF248130E0322F22274581EC
:10093000242B223DF4E03F0709F026CF22CF24816B
:1009400030E0322F22274581242BFC01EE0FFF1FC0
:10095000ED5FFD4F3183208317CFDF91CF911F9142
:100960000F91FF90EF90089581E091E09093210224
:10097000809320028FEF90E090931B0280931A02E5
:1009800010921D0210921C0210921F0210921E0261
:1009900081E080931902529A5A9810928000109226
:1009A00081001092820010928500109284001092B3
:1009B00089001092880010928B0010928A00109289
:1009C000870010928600EFE6F0E0808181608083EE
:1009D000609113027091140280E094E20E946E080C
:1009E000615071097093C5006093C40080E98093E1
:1009F000C10086E08093C20008951F920F920FB647
:100A00000F9211242F933F934F935F936F938F9384
:100A10009F93AF93BF93EF93FF93E1E8F0E0808162
:100A2000887F80838091C0006091C6008C71A9F09E
:100A30008091C000882344F4A6ECB0E0E0ECF0E044
:100A40008C9180818823E4F310921D0210921C0285
:100A500010921F0210921E0235C020911E0230918A
:100A60001F0280911A0290911B022817390748F043
:100A700010921D0210921C0210921F0210921E0270
:100A800021C02091200230912102EEE1F2E080812C
:100A90009181AC014F5F5F4F51834083F901E80FB3
:100AA000F91F608380911602909117022FB7F89476
:100AB0009093850080938400E1E8F0E0808182607B
:100AC00080832FBFFF91EF91BF91AF919F918F9145
:100AD0006F915F914F913F912F910F900FBE0F90AB
:100AE0001F9018951F920F920FB60F9211242F93FB
:100AF0003F934F935F936F937F938F939F93AF93A6
:100B0000BF93CF93DF93EF93FF93E1ECF0E080810D
:100B10008F7E808380818F778083E1E8F0E0808121
:100B2000887F8083EEE1F2E080819181CCE1D2E0A8
:100B3000998388831182108269E172E082E192E0F8
:100B40000E94B50288819981892BA9F1109219021E
:100B5000E1ECF0E08081886080835A9AE0ECF0E07C
:100B60008081806480832091200230912102EEE117
:100B7000F2E080819181AC014F5F5F4F51834083F0
:100B8000F901E80FF91F80818093C600888199815F
:100B900001979983888388819981892B31F0E1ECD1
:100BA000F0E080818062808313C0E1ECF0E080811E
:100BB000806480830DC0E1ECF0E0808180618083FF
:100BC000A0ECB0E08C9180688C93808180688083F9
:100BD000FF91EF91DF91CF91BF91AF919F918F9155
:100BE0007F916F915F914F913F912F910F900FBE29
:100BF0000F901F9018951F920F920FB60F9211240D
:100C00002F933F934F935F938F939F93EF93FF9314
:100C100080911C0290911D02892B01F1E0ECF0E023
:100C20008081806480832091200230912102EEE156
:100C3000F2E080819181AC014F5F5F4F518340832F
:100C4000F901E80FF91F80818093C600ECE1F2E022
:100C50008081918101979183808308C0E1ECF0E06D
:100C600080818F7D8083808180648083FF91EF917C
:100C70009F918F915F914F913F912F910F900FBE58
:100C80000F901F9018951F920F920FB60F9211247C
:100C90008F93EF93FF935A98E1ECF0E080818F7B84
:100CA00080838081877F808381E080931902109206
:100CB0001F0210921E028081806180838081806883
:100CC0008083FF91EF918F910F900FBE0F901F9037
:100CD00018955058BB27AA270ED01CC10DD130F053
:100CE00012D120F031F49F3F11F41EF402C10EF432
:100CF000E095E7FBCFC0E92F1ED180F3BA1762075A
:100D000073078407950718F071F49EF54DC10EF432
:100D1000E0950B2EBA2FA02D0B01B90190010C010B
:100D2000CA01A0011124FF27591B99F0593F50F423
:100D3000503E68F11A16F040A22F232F342F44277B
:100D4000585FF3CF469537952795A795F040539573
:100D5000C9F77EF41F16BA0B620B730B840BBAF043
:100D60009150A1F0FF0FBB1F661F771F881FC2F7AE
:100D70000EC0BA0F621F731F841F48F487957795C2
:100D80006795B795F7959E3F08F0B3CF9395880F79
:100D900008F09927EE0F979587950895EED080F08B
:100DA0009F3740F491110EF400C160E070E080E8DC
:100DB0009FE3089526F01B16611D711D811D70C0F3
:100DC0008AC0C1D088F09F5790F0B92F9927B751AA
:100DD000A0F0D1F0660F771F881F991F1AF0BA95FF
:100DE000C9F712C0B13081F0DFD0B1E00895DCC0A6
:100DF000672F782F8827B85F39F0B93FCCF38695F5
:100E000077956795B395D9F73EF490958095709551
:100E100061957F4F8F4F9F4F0895E89409C097FBCE
:100E20003EF490958095709561957F4F8F4F9F4FC1
:100E30009923A9F0F92F96E9BB279395F695879505
:100E400077956795B795F111F8CFFAF4BB0F11F4C8
:100E500060FF1BC06F5F7F4F8F4F9F4F16C088236F
:100E600011F096E911C0772321F09EE8872F762FA5
:100E700005C0662371F096E8862F70E060E02AF0E6
:100E80009A95660F771F881FDAF7880F96958795D2
:100E900097F9089597F99F6780E870E060E00895FA
:100EA000882371F4772321F09850872B762F07C081
:100EB000662311F499270DC09051862B70E060E0F5
:100EC0002AF09A95660F771F881FDAF7880F969594
:100ED000879597F908959F3F31F0915020F48795B9
:100EE00077956795B795880F911D9695879597F992
:100EF00008959FEF80EC089500240A9416161706B3
:100F000018060906089500240A94121613061406FA
:100F100005060895092E0394000C11F4882352F05D
:100F2000BB0F40F4BF2B11F460FF04C06F5F7F4F15
:100F30008F4F9F4F089557FD9058440F551F59F0FC
:100F40005F3F71F04795880F97FB991F61F09F3FB6
:100F500079F087950895121613061406551FF2CFDF
:100F60004695F1DF08C0161617061806991FF1CF2F
:100F700086957105610508940895E5DFA0F0BEE748
:100F8000B91788F4BB279F3860F41616B11D672F78
:100F9000782F8827985FF7CF869577956795B11D4D
:100FA00093959639C8F30895E894BB276627772769
:100FB000CB0197F90895C7DF58F19E5758F1985122
:100FC000A0F0E9F0983020F5092E9927660F771FD9
:100FD000881F991F0A94D1F712C0062E672F782F09
:100FE0008827985F11F4000C07C0993FB4F38695E9
:100FF000779567959395D9F7611D711D811D3EF415
:1010000090958095709561957F4F8F4F9F4F089574
:101010006894CBCFC9CF0BD07DCF6EDF28F073DFC4
:1010200018F0952309F036CF64CF1124BECF83DFAB
:10103000A0F3959FD1F3950F50E0551F629FF001EB
:10104000729FBB27F00DB11D639FAA27F00DB11D44
:10105000AA1F649F6627B00DA11D661F829F2227CD
:10106000B00DA11D621F739FB00DA11D621F839F54
:10107000A00D611D221F749F3327A00D611D231F2A
:10108000849F600D211D822F762F6A2F11249F5778
:1010900050408AF0E1F088234AF0EE0FFF1FBB1F9B
:1010A000661F771F881F91505040A9F79E3F51053A
:1010B00070F0F0CE7ACF5F3FECF3983EDCF386958C
:1010C00077956795B795F795E7959F5FC1F7FE2BE5
:1010D000880F911D9695879597F90895AA1BBB1BBC
:1010E00051E107C0AA1FBB1FA617B70710F0A61B28
:1010F000B70B881F991F5A95A9F780959095BC0149
:10110000CD010895A1E21A2EAA1BBB1BFD010DC043
:10111000AA1FBB1FEE1FFF1FA217B307E407F507A7
:1011200020F0A21BB30BE40BF50B661F771F881F83
:10113000991F1A9469F760957095809590959B0119
:0C114000AC01BD01CF010895F894FFCF71
:00000001FF
